{
  "contractName": "TodoList",
  "abi": [
    {
      "constant": true,
      "inputs": [
        {
          "name": "",
          "type": "uint256"
        }
      ],
      "name": "tasks",
      "outputs": [
        {
          "name": "id",
          "type": "uint256"
        },
        {
          "name": "content",
          "type": "string"
        },
        {
          "name": "completed",
          "type": "bool"
        }
      ],
      "payable": false,
      "stateMutability": "view",
      "type": "function",
      "signature": "0x8d977672"
    },
    {
      "constant": true,
      "inputs": [],
      "name": "taskCount",
      "outputs": [
        {
          "name": "",
          "type": "uint256"
        }
      ],
      "payable": false,
      "stateMutability": "view",
      "type": "function",
      "signature": "0xb6cb58a5"
    },
    {
      "inputs": [],
      "payable": false,
      "stateMutability": "nonpayable",
      "type": "constructor",
      "signature": "constructor"
    },
    {
      "anonymous": false,
      "inputs": [
        {
          "indexed": false,
          "name": "id",
          "type": "uint256"
        },
        {
          "indexed": false,
          "name": "content",
          "type": "string"
        },
        {
          "indexed": false,
          "name": "completed",
          "type": "bool"
        }
      ],
      "name": "TaskCreated",
      "type": "event",
      "signature": "0x05d0fb833127fc08168556d0e7ca9554fc3f6bc843b3b7d2bf1c35aea6bab660"
    },
    {
      "constant": false,
      "inputs": [
        {
          "name": "_content",
          "type": "string"
        }
      ],
      "name": "createTasks",
      "outputs": [],
      "payable": false,
      "stateMutability": "nonpayable",
      "type": "function",
      "signature": "0xc45d2e00"
    }
  ],
  "bytecode": "0x60806040526000805534801561001457600080fd5b506100626040805190810160405280601581526020017f4669727374207461736b206f6e206d79206c6973740000000000000000000000815250610067640100000000026401000000009004565b610262565b6000815111151561007757600080fd5b600080815480929190600101919050555060606040519081016040528060005481526020018281526020016000151581525060016000805481526020019081526020016000206000820151816000015560208201518160010190805190602001906100e39291906101bd565b5060408201518160020160006101000a81548160ff0219169083151502179055509050507f05d0fb833127fc08168556d0e7ca9554fc3f6bc843b3b7d2bf1c35aea6bab660600054826000604051808481526020018060200183151515158152602001828103825284818151815260200191508051906020019080838360005b8381101561017e578082015181840152602081019050610163565b50505050905090810190601f1680156101ab5780820380516001836020036101000a031916815260200191505b5094505050505060405180910390a150565b828054600181600116156101000203166002900490600052602060002090601f016020900481019282601f106101fe57805160ff191683800117855561022c565b8280016001018555821561022c579182015b8281111561022b578251825591602001919060010190610210565b5b509050610239919061023d565b5090565b61025f91905b8082111561025b576000816000905550600101610243565b5090565b90565b610511806102716000396000f3fe608060405260043610610057576000357c0100000000000000000000000000000000000000000000000000000000900463ffffffff1680638d9776721461005c578063b6cb58a514610122578063c45d2e001461014d575b600080fd5b34801561006857600080fd5b506100956004803603602081101561007f57600080fd5b8101908080359060200190929190505050610215565b604051808481526020018060200183151515158152602001828103825284818151815260200191508051906020019080838360005b838110156100e55780820151818401526020810190506100ca565b50505050905090810190601f1680156101125780820380516001836020036101000a031916815260200191505b5094505050505060405180910390f35b34801561012e57600080fd5b506101376102e4565b6040518082815260200191505060405180910390f35b34801561015957600080fd5b506102136004803603602081101561017057600080fd5b810190808035906020019064010000000081111561018d57600080fd5b82018360208201111561019f57600080fd5b803590602001918460018302840111640100000000831117156101c157600080fd5b91908080601f016020809104026020016040519081016040528093929190818152602001838380828437600081840152601f19601f8201169050808301925050505050505091929192905050506102ea565b005b6001602052806000526040600020600091509050806000015490806001018054600181600116156101000203166002900480601f0160208091040260200160405190810160405280929190818152602001828054600181600116156101000203166002900480156102c75780601f1061029c576101008083540402835291602001916102c7565b820191906000526020600020905b8154815290600101906020018083116102aa57829003601f168201915b5050505050908060020160009054906101000a900460ff16905083565b60005481565b600081511115156102fa57600080fd5b60008081548092919060010191905055506060604051908101604052806000548152602001828152602001600015158152506001600080548152602001908152602001600020600082015181600001556020820151816001019080519060200190610366929190610440565b5060408201518160020160006101000a81548160ff0219169083151502179055509050507f05d0fb833127fc08168556d0e7ca9554fc3f6bc843b3b7d2bf1c35aea6bab660600054826000604051808481526020018060200183151515158152602001828103825284818151815260200191508051906020019080838360005b838110156104015780820151818401526020810190506103e6565b50505050905090810190601f16801561042e5780820380516001836020036101000a031916815260200191505b5094505050505060405180910390a150565b828054600181600116156101000203166002900490600052602060002090601f016020900481019282601f1061048157805160ff19168380011785556104af565b828001600101855582156104af579182015b828111156104ae578251825591602001919060010190610493565b5b5090506104bc91906104c0565b5090565b6104e291905b808211156104de5760008160009055506001016104c6565b5090565b9056fea165627a7a72305820c6d3fdf255e7ebc5456ab4846d74f2f216636c241e676e495bdf031f68da986d0029",
  "source": "pragma solidity ^0.5.0;\n\ncontract TodoList {\n    uint public taskCount = 0;\n\n    struct Task {\n        uint id;\n        string content;\n        bool completed;\n    }\n\n    event TaskCreated(\n    uint id,\n    string content,\n    bool completed\n    );\n\n    mapping (uint => Task) public tasks;\n\n    constructor () public {\n        createTasks(\"First task on my list\");\n    }\n\n    function createTasks (string memory _content) public {\n        require(bytes(_content).length > 0);\n        taskCount++;\n        tasks[taskCount] = Task(taskCount, _content, false);\n        emit TaskCreated(taskCount, _content, false);\n    }\n}",
  "sourcePath": "/home/propertywithin/eth-todo-list-react/src/contracts/TodoList.sol",
  "compiler": {
    "name": "solc",
    "version": "0.5.0+commit.1d4f565a.Emscripten.clang"
  },
  "schemaVersion": "3.0.2",
  "updatedAt": "2021-01-14T00:24:54.707Z",
  "devdoc": {
    "methods": {}
  },
  "userdoc": {
    "methods": {}
  }
}